:020000040000fa
:080000000002040000000000f2
:020000040000fa
:040008005803000099
:020000040000fa
:04000c005803000095
:020000040000fa
:040010005803000091
:020000040000fa
:04001400580300008d
:020000040000fa
:040018005803000089
:020000040000fa
:04001c005803000085
:020000040000fa
:040020005803000081
:020000040000fa
:04002400580300007d
:020000040000fa
:040028005803000079
:020000040000fa
:04002c005803000075
:020000040000fa
:040030005803000071
:020000040000fa
:04003400c8020000fe
:020000040000fa
:040038005803000069
:020000040000fa
:04003c005803000065
:020000040000fa
:040040005803000061
:020000040000fa
:04004400580300005d
:020000040000fa
:040048005803000059
:020000040000fa
:04004c005803000055
:020000040000fa
:040050005803000051
:020000040000fa
:04005400360300006f
:020000040000fa
:040058000c03000095
:020000040000fa
:04005c005803000045
:020000040000fa
:040060005803000041
:020000040000fa
:04006400580300003d
:020000040000fa
:040068005803000039
:020000040000fa
:04006c005803000035
:020000040000fa
:040070005803000031
:020000040000fa
:04007400580300002d
:020000040000fa
:040078005803000029
:020000040000fa
:04007c005803000025
:020000040000fa
:040080005803000021
:020000040000fa
:04008400580300001d
:020000040000fa
:040088005803000019
:020000040000fa
:04008c005803000015
:020000040000fa
:040090005803000011
:020000040000fa
:04009400580300000d
:020000040000fa
:040098005803000009
:020000040000fa
:04009c005803000005
:020000040000fa
:0400a0005803000001
:020000040000fa
:0400a40058030000fd
:020000040000fa
:0400a80058030000f9
:020000040000fa
:0400ac0058030000f5
:020000040000fa
:0400b00058030000f1
:020000040000fa
:0400b40058030000ed
:020000040000fa
:0400b80058030000e9
:020000040000fa
:0400bc0058030000e5
:020000040000fa
:0400c00058030000e1
:020000040000fa
:0400c40058030000dd
:020000040000fa
:0400c80058030000d9
:020000040000fa
:0400cc0058030000d5
:020000040000fa
:0400d00058030000d1
:020000040000fa
:0400d40058030000cd
:020000040000fa
:0400d80058030000c9
:020000040000fa
:0400dc0058030000c5
:020000040000fa
:0400e00058030000c1
:020000040000fa
:0400e40058030000bd
:020000040000fa
:0400e80058030000b9
:020000040000fa
:0400ec0058030000b5
:020000040000fa
:0400f00058030000b1
:020000040000fa
:0400f40058030000ad
:020000040000fa
:0400f80058030000a9
:020000040000fa
:0400fc0058030000a5
:020000040000fa
:0401000058030000a0
:020000040000fa
:04010400580300009c
:020000040000fa
:040108005803000098
:020000040000fa
:04010c005803000094
:020000040000fa
:040110005803000090
:020000040000fa
:04011400580300008c
:020000040000fa
:040118005803000088
:020000040000fa
:04011c005803000084
:020000040000fa
:040120005803000080
:020000040000fa
:04012400580300007c
:020000040000fa
:040128005803000078
:020000040000fa
:04012c005803000074
:020000040000fa
:040130005803000070
:020000040000fa
:04013400580300006c
:020000040000fa
:040138005803000068
:020000040000fa
:04013c005803000064
:020000040000fa
:040140005803000060
:020000040000fa
:04014400580300005c
:020000040000fa
:040148005803000058
:020000040000fa
:04014c005803000054
:020000040000fa
:040150005803000050
:020000040000fa
:040208005803000097
:020000040000fa
:04020c005803000093
:020000040000fa
:04021000580300008f
:020000040000fa
:04021400580300008b
:020000040000fa
:040218005803000087
:020000040000fa
:04021c005803000083
:020000040000fa
:04022000580300007f
:020000040000fa
:04022400580300007b
:020000040000fa
:040228005803000077
:020000040000fa
:04022c005803000073
:020000040000fa
:04023000580300006f
:020000040000fa
:04023400c8020000fc
:020000040000fa
:040238005803000067
:020000040000fa
:04023c005803000063
:020000040000fa
:04024000580300005f
:020000040000fa
:04024400580300005b
:020000040000fa
:040248005803000057
:020000040000fa
:04024c005803000053
:020000040000fa
:04025000580300004f
:020000040000fa
:04025400360300006d
:020000040000fa
:040258000c03000093
:020000040000fa
:04025c005803000043
:020000040000fa
:04026000580300003f
:020000040000fa
:04026400580300003b
:020000040000fa
:040268005803000037
:020000040000fa
:04026c005803000033
:020000040000fa
:04027000580300002f
:020000040000fa
:04027400580300002b
:020000040000fa
:040278005803000027
:020000040000fa
:04027c005803000023
:020000040000fa
:04028000580300001f
:020000040000fa
:04028400580300001b
:020000040000fa
:040288005803000017
:020000040000fa
:04028c005803000013
:020000040000fa
:04029000580300000f
:020000040000fa
:04029400580300000b
:020000040000fa
:040298005803000007
:020000040000fa
:04029c005803000003
:020000040000fa
:0402a00058030000ff
:020000040000fa
:0402a40058030000fb
:020000040000fa
:0402a80058030000f7
:020000040000fa
:0402ac0058030000f3
:020000040000fa
:0402b00058030000ef
:020000040000fa
:0402b40058030000eb
:020000040000fa
:0402b80058030000e7
:020000040000fa
:0402bc0058030000e3
:020000040000fa
:0402c00058030000df
:020000040000fa
:0402c40058030000db
:020000040000fa
:0402c80058030000d7
:020000040000fa
:0402cc0058030000d3
:020000040000fa
:0402d00058030000cf
:020000040000fa
:0402d40058030000cb
:020000040000fa
:0402d80058030000c7
:020000040000fa
:0402dc0058030000c3
:020000040000fa
:0402e00058030000bf
:020000040000fa
:0402e40058030000bb
:020000040000fa
:0402e80058030000b7
:020000040000fa
:0402ec0058030000b3
:020000040000fa
:0402f00058030000af
:020000040000fa
:0402f40058030000ab
:020000040000fa
:0402f80058030000a7
:020000040000fa
:0402fc0058030000a3
:020000040000fa
:04030000580300009e
:020000040000fa
:04030400580300009a
:020000040000fa
:040308005803000096
:020000040000fa
:04030c005803000092
:020000040000fa
:04031000580300008e
:020000040000fa
:04031400580300008a
:020000040000fa
:040318005803000086
:020000040000fa
:04031c005803000082
:020000040000fa
:04032000580300007e
:020000040000fa
:04032400580300007a
:020000040000fa
:040328005803000076
:020000040000fa
:04032c005803000072
:020000040000fa
:04033000580300006e
:020000040000fa
:04033400580300006a
:020000040000fa
:040338005803000066
:020000040000fa
:04033c005803000062
:020000040000fa
:04034000580300005e
:020000040000fa
:04034400580300005a
:020000040000fa
:040348005803000056
:020000040000fa
:04034c005803000052
:020000040000fa
:04035000580300004e
:020000040000fa
:100400002f9a20000eff20000e018800000000003f
:10041000000020000000e000020032000001200087
:100420002002880014000700a30007000000e0007d
:1004300003003a00a0542000010020000200370011
:100440000000200001002000810f70000100320038
:1004500014000700000020000000e000020032004d
:100460000000020000000000e004020000000000a4
:100470000040da000000fe004440a9000000200017
:100480000000e0000300320000002000a00188000e
:100490004440a800000006008a1f78008b1f7800e7
:1004a0000000060091018800800478000000eb0045
:1004b0001a003700e284440032a0b4009905ba0063
:1004c000e284440032a0b4009906ba00e2844400f9
:1004d00032a0b4000006eb00476fde00fd07b2005b
:1004e000636ce10003003a00ebff07000000eb0043
:1004f0000a003700606ce10004003a00005deb0088
:100500008b05e900fdff3e00040037006168e10053
:10051000010032000086eb000b00070019c7ba008b
:100520001905ba000e04e00003003a000a00e000da
:10053000e0ff3a0000000600fe07b2009e018800be
:100540008a047800f5ff3700395dba008b05e900b1
:100550000c003200295dba008b05e900080032006a
:100560000c00e00003003a00e284440032a0b40032
:10057000f5ff370019ddba008b05e900faff3a00f4
:100580008904e800e184440032a0b40000000600c1
:10059000809fbe000000fa008460a900c14c80006a
:1005a000d04c8000808f500008003d00f04c80004f
:1005b000110020000008dd00800078005016800047
:1005c000010070005016880008003700f04c8000d1
:1005d000110020000008dd000080ea0080007800a3
:1005e000501680000080600050168800c04c8000cb
:1005f0000000e800c04c8800c14c8000e04c800046
:10060000808f5000010035009829ef000080fa002b
:100610004f00be00004006003600f800809fbe007c
:10062000829fbe00849fbe00869fbe000000fa002d
:100630008580a900914c8000804c8000808f500004
:1006400003003200540007000080fb0020118800e6
:100650000080fa004f03be004f02be004f01be00f3
:100660004f00be003600f900004006003600f800da
:10067000809fbe00829fbe00849fbe00869fbe00fa
:100680000000fa008560a900301180000040780069
:10069000520007000080fa004f03be004f02be0068
:1006a0004f01be004f00be003600f90000400600ba
:0c06b0000040da000000fe000000050021
:020000040000fa
:1006bc000000fa00401680000050a0004016880090
:1006cc00401680000040a10040168800f003200076
:1006dc00401188002002a9000111800090ff2f001a
:1006ec00008060000011880020a2a90021e2a8006f
:1006fc0023e2a80011118000f0f32f0000806000ad
:10070c00101188002342a8005105800080ff2f00a3
:10071c00008060000020a00050058800410580008a
:10072c00f0ff28000080600000e0a0004005880079
:10073c008580a9008560a9009580a8009560a80017
:10074c000080fa00000006000200fa00004f78005a
:10075c00824c80009e407800008020000000410008
:10076c0001487800804c80000000e800804c880034
:10077c00814c8000800c2000808f500001003a00da
:10078c009029ef000080fa00000006000200fa0039
:10079c00914c8000008020000080400010407800c8
:1007ac00004f7800904c80000000e800904c8800ce
:1007bc00914c8000800c2000808f500001003a008a
:1007cc009229ef001e4078000080fa00000006001d
:1007dc000200fa00004f7800a24c80009e40780086
:1007ec00808c20000000410001487800a04c800063
:1007fc000000e800a04c8800a14c8000800c200078
:10080c00808f500001003a009429ef000080fa001c
:10081c00000006000200fa00b14c8000808c200021
:10082c000080400010407800004f7800b04c8000f1
:10083c000000e800b04c8800b14c8000800c200017
:10084c00808f500001003a009629ef001e4078007e
:10085c000080fa00000006000000fa008580a80065
:10086c000080fa00000006000000fa00b14c800085
:10087c00a04c80000080680000f0a7000000ea0097
:10088c000000ea004f00de000080fa0000000600c5
:10089c000000fa00213a800000fe2f00008060006a
:1008ac00203a880090022000303a8800213a8000db
:1008bc00f0f32f0000806000203a88001200200026
:1008cc0080072000a10920003374200080497800a3
:1008dc008149780082497800103a80000001780044
:1008ec000200a00060042000710520002374200089
:1008fc008049780081497800824978000000000026
:10090c00113a800000002700808060000000210068
:10091c00808f5000faff3a0000000000113a80006e
:10092c0000022000008060000000e000fbff3200ad
:10093c000080fa00000006000000fa00113a800066
:10094c00f00b200000816000600420007105200085
:10095c00237420008049780081497800824978000e
:10096c002135800000fe2f00008060005000b30095
:10097c00203588002136800000fe2f0000806000aa
:10098c003000b30020368800103a80000001780057
:10099c000260a00060042000710520002374200078
:1009ac008049780081497800824978000080fa00fb
:1009bc00000006000200fa00b5ff0700deff07008a
:1009cc0041168000f0ff2000008060004016880077
:1009dc001300070036ff0700d0c2b3005aff070010
:1009ec009dff070001003700000000009eff07007c
:1009fc000000e000fcff320086ff0700004f78008b
:100a0c001e80fb00004d8800004d80001800070080
:100a1c00a0c2b3004cff07008fff0700f3ff3700a5
:100a2c000000fa00f0ff2e005016880041168000de
:100a3c00f0ff200000806000401688000021ef00cd
:100a4c0000c4290010088800000028002008880035
:100a5c00200480000030a10020048800a004800045
:100a6c000030a000a00488000080fa0000000600fe
:100a7c000200fa00000f78009e007800d14c88002c
:080a8c000080fa0000000600e2
:020000040000fa
:100a9400a009000002000000000000009809000006
:100aa40004000000000000009c0900000400000095
:100ab400020000000a000c00000000000008000012
:0c0ac4009801000000000000000000008d
:020000040000fa
:0200000401f009
:04000000ffffff00ff
:020000040000fa
:0200000401f009
:04000800ffffff00f7
:020000040000fa
:0200000401f009
:04000c0000000000f0
:020000040000fa
:0200000401f009
:0400100043000000a9
:020000040000fa
:0200000401f009
:040014005f00000089
:020000040000fa
:0200000401f009
:04001800f7000000ed
:020000040000fa
:0200000401f009
:04001c00dfff000002
:00000001FF
