:020000040000fa
:080000000002040000000000f2
:020000040000fa
:04000800be03000033
:020000040000fa
:04000c00be0300002f
:020000040000fa
:04001000be0300002b
:020000040000fa
:04001400be03000027
:020000040000fa
:04001800be03000023
:020000040000fa
:04001c00be0300001f
:020000040000fa
:04002000be0300001b
:020000040000fa
:04002400be03000017
:020000040000fa
:04002800be03000013
:020000040000fa
:04002c00be0300000f
:020000040000fa
:04003000be0300000b
:020000040000fa
:04003400c8020000fe
:020000040000fa
:04003800be03000003
:020000040000fa
:04003c00be030000ff
:020000040000fa
:04004000be030000fb
:020000040000fa
:040044003a0300007b
:020000040000fa
:04004800be030000f3
:020000040000fa
:04004c00be030000ef
:020000040000fa
:04005000be030000eb
:020000040000fa
:0400540002030000a3
:020000040000fa
:04005800d8020000ca
:020000040000fa
:04005c002403000079
:020000040000fa
:04006000be030000db
:020000040000fa
:04006400be030000d7
:020000040000fa
:04006800be030000d3
:020000040000fa
:04006c00be030000cf
:020000040000fa
:04007000be030000cb
:020000040000fa
:04007400be030000c7
:020000040000fa
:04007800be030000c3
:020000040000fa
:04007c00be030000bf
:020000040000fa
:04008000be030000bb
:020000040000fa
:04008400be030000b7
:020000040000fa
:04008800be030000b3
:020000040000fa
:04008c00be030000af
:020000040000fa
:04009000be030000ab
:020000040000fa
:04009400be030000a7
:020000040000fa
:04009800be030000a3
:020000040000fa
:04009c00be0300009f
:020000040000fa
:0400a000be0300009b
:020000040000fa
:0400a400be03000097
:020000040000fa
:0400a800be03000093
:020000040000fa
:0400ac00be0300008f
:020000040000fa
:0400b000be0300008b
:020000040000fa
:0400b400be03000087
:020000040000fa
:0400b800be03000083
:020000040000fa
:0400bc00be0300007f
:020000040000fa
:0400c000be0300007b
:020000040000fa
:0400c400be03000077
:020000040000fa
:0400c800be03000073
:020000040000fa
:0400cc00be0300006f
:020000040000fa
:0400d000be0300006b
:020000040000fa
:0400d400be03000067
:020000040000fa
:0400d800be03000063
:020000040000fa
:0400dc00be0300005f
:020000040000fa
:0400e000be0300005b
:020000040000fa
:0400e400be03000057
:020000040000fa
:0400e800be03000053
:020000040000fa
:0400ec00be0300004f
:020000040000fa
:0400f000be0300004b
:020000040000fa
:0400f400be03000047
:020000040000fa
:0400f800be03000043
:020000040000fa
:0400fc00be0300003f
:020000040000fa
:04010000be0300003a
:020000040000fa
:04010400be03000036
:020000040000fa
:04010800be03000032
:020000040000fa
:04010c00be0300002e
:020000040000fa
:04011000be0300002a
:020000040000fa
:04011400be03000026
:020000040000fa
:04011800be03000022
:020000040000fa
:04011c00be0300001e
:020000040000fa
:04012000be0300001a
:020000040000fa
:04012400be03000016
:020000040000fa
:04012800be03000012
:020000040000fa
:04012c00be0300000e
:020000040000fa
:04013000be0300000a
:020000040000fa
:04013400be03000006
:020000040000fa
:04013800be03000002
:020000040000fa
:04013c00be030000fe
:020000040000fa
:04014000be030000fa
:020000040000fa
:04014400be030000f6
:020000040000fa
:04014800be030000f2
:020000040000fa
:04014c00be030000ee
:020000040000fa
:04015000be030000ea
:020000040000fa
:04020800be03000031
:020000040000fa
:04020c00be0300002d
:020000040000fa
:04021000be03000029
:020000040000fa
:04021400be03000025
:020000040000fa
:04021800be03000021
:020000040000fa
:04021c00be0300001d
:020000040000fa
:04022000be03000019
:020000040000fa
:04022400be03000015
:020000040000fa
:04022800be03000011
:020000040000fa
:04022c00be0300000d
:020000040000fa
:04023000be03000009
:020000040000fa
:04023400c8020000fc
:020000040000fa
:04023800be03000001
:020000040000fa
:04023c00be030000fd
:020000040000fa
:04024000be030000f9
:020000040000fa
:040244003a03000079
:020000040000fa
:04024800be030000f1
:020000040000fa
:04024c00be030000ed
:020000040000fa
:04025000be030000e9
:020000040000fa
:0402540002030000a1
:020000040000fa
:04025800d8020000c8
:020000040000fa
:04025c002403000077
:020000040000fa
:04026000be030000d9
:020000040000fa
:04026400be030000d5
:020000040000fa
:04026800be030000d1
:020000040000fa
:04026c00be030000cd
:020000040000fa
:04027000be030000c9
:020000040000fa
:04027400be030000c5
:020000040000fa
:04027800be030000c1
:020000040000fa
:04027c00be030000bd
:020000040000fa
:04028000be030000b9
:020000040000fa
:04028400be030000b5
:020000040000fa
:04028800be030000b1
:020000040000fa
:04028c00be030000ad
:020000040000fa
:04029000be030000a9
:020000040000fa
:04029400be030000a5
:020000040000fa
:04029800be030000a1
:020000040000fa
:04029c00be0300009d
:020000040000fa
:0402a000be03000099
:020000040000fa
:0402a400be03000095
:020000040000fa
:0402a800be03000091
:020000040000fa
:0402ac00be0300008d
:020000040000fa
:0402b000be03000089
:020000040000fa
:0402b400be03000085
:020000040000fa
:0402b800be03000081
:020000040000fa
:0402bc00be0300007d
:020000040000fa
:0402c000be03000079
:020000040000fa
:0402c400be03000075
:020000040000fa
:0402c800be03000071
:020000040000fa
:0402cc00be0300006d
:020000040000fa
:0402d000be03000069
:020000040000fa
:0402d400be03000065
:020000040000fa
:0402d800be03000061
:020000040000fa
:0402dc00be0300005d
:020000040000fa
:0402e000be03000059
:020000040000fa
:0402e400be03000055
:020000040000fa
:0402e800be03000051
:020000040000fa
:0402ec00be0300004d
:020000040000fa
:0402f000be03000049
:020000040000fa
:0402f400be03000045
:020000040000fa
:0402f800be03000041
:020000040000fa
:0402fc00be0300003d
:020000040000fa
:04030000be03000038
:020000040000fa
:04030400be03000034
:020000040000fa
:04030800be03000030
:020000040000fa
:04030c00be0300002c
:020000040000fa
:04031000be03000028
:020000040000fa
:04031400be03000024
:020000040000fa
:04031800be03000020
:020000040000fa
:04031c00be0300001c
:020000040000fa
:04032000be03000018
:020000040000fa
:04032400be03000014
:020000040000fa
:04032800be03000010
:020000040000fa
:04032c00be0300000c
:020000040000fa
:04033000be03000008
:020000040000fa
:04033400be03000004
:020000040000fa
:04033800be03000000
:020000040000fa
:04033c00be030000fc
:020000040000fa
:04034000be030000f8
:020000040000fa
:04034400be030000f4
:020000040000fa
:04034800be030000f0
:020000040000fa
:04034c00be030000ec
:020000040000fa
:04035000be030000e8
:020000040000fa
:100400002f9b20000eff20000e018800000000003e
:10041000000020000000e000020032000001200087
:100420002002880014000700d60007000000e0004a
:1004300003003a00a07520000100200002003700f0
:100440000000200001002000810f70000100320038
:1004500014000700000020000000e000020032004d
:1004600000000200000000003c0602000000000046
:100470000040da000000fe004440a9000000200017
:100480000000e0000300320000002000a00188000e
:100490004440a800000006008a1f78008b1f7800e7
:1004a0000000060091018800800478000000eb0045
:1004b0001a003700e284440032a0b4009905ba0063
:1004c000e284440032a0b4009906ba00e2844400f9
:1004d00032a0b4000006eb00476fde00fd07b2005b
:1004e000636ce10003003a00ebff07000000eb0043
:1004f0000a003700606ce10004003a00005deb0088
:100500008b05e900fdff3e00040037006168e10053
:10051000010032000086eb000b00070019c7ba008b
:100520001905ba000e04e00003003a000a00e000da
:10053000e0ff3a0000000600fe07b2009e018800be
:100540008a047800f5ff3700395dba008b05e900b1
:100550000c003200295dba008b05e900080032006a
:100560000c00e00003003a00e284440032a0b40032
:10057000f5ff370019ddba008b05e900faff3a00f4
:100580008904e800e184440032a0b40000000600c1
:10059000801f78000000fa008460a900100020008d
:1005a000404d88000080fa004f00780000400600af
:1005b0003600f800809fbe00829fbe00849fbe0070
:1005c000869fbe000000fa008580a900914c800043
:1005d000804c8000808f500003003200a100070093
:1005e0000080fb00201188000080fa004f03be004d
:1005f0004f02be004f01be004f00be003600f900a2
:10060000004006003600f800809fbe00829fbe00ba
:10061000849fbe00869fbe000000fa008560a9008e
:1006200030118000004078009f0007000080fa0031
:100630004f03be004f02be004f01be004f00be0080
:100640003600f90000400600801f78000000fa0024
:1006500085a0a90000188000604d88000019800066
:100660000010a000001988000080fa004f007800f8
:1006700000400600809fbe000000fa0084e0a90050
:10068000304d8000e20f500004003a005016800008
:100690000090a000501688000a003700304d8000fe
:1006a000e10f500004003a00501680000090a100b5
:1006b0005016880003003700501680000090a100fb
:1006c00050168800304d8000e20f500004003a00c0
:1006d000501680000070a100501688000a003700f4
:1006e000304d8000e10f500004003a0050168000a9
:1006f0000070a000501688000300370050168000dc
:100700000070a10050168800304d80000000e0000d
:100710000c003200114d8000204d8000808f500071
:1007200004003c00501680000060a00050168800b5
:1007300007003700501680000060a10050168800a6
:1007400003003700501680000060a100501688009a
:10075000114d8000704d8000808f500001003a00e4
:10076000a229ef00104d80000000e800104d880025
:100770000080fa004f00be00004006000040da0092
:080780000000fe00000005006e
:020000040000fa
:100788000000fa00401680000050a00040168800c3
:10079800401680000040a10040168800f0032000a9
:1007a800401188002002a9000111800090ff2f004d
:1007b800008060000011880020a2a90021e2a800a2
:1007c80023e2a80011118000f0f32f0000806000e0
:1007d800101188002342a8005105800080ff2f00d7
:1007e800008060000020a0005005880041058000be
:1007f800f0ff28000080600000e0a00040058800ad
:100808008580a9008560a9009580a8009560a8004a
:100818000080fa00000006000200fa00004f78008d
:10082800824c80009e40780000802000000041003b
:1008380001487800804c80000000e800804c880067
:10084800814c8000800c2000808f500001003a000d
:100858009029ef000080fa00000006000200fa006c
:10086800914c8000008020000080400010407800fb
:10087800004f7800904c80000000e800904c880001
:10088800914c8000800c2000808f500001003a00bd
:100898009229ef001e4078000080fa000000060050
:1008a8000200fa00004f7800a24c80009e407800b9
:1008b800808c20000000410001487800a04c800096
:1008c8000000e800a04c8800a14c8000800c2000ab
:1008d800808f500001003a009429ef000080fa0050
:1008e800000006000200fa00b14c8000808c200055
:1008f8000080400010407800004f7800b04c800025
:100908000000e800b04c8800b14c8000800c20004a
:10091800808f500001003a009629ef001e407800b1
:100928000080fa00000006000000fa008580a80098
:100938000080fa00000006000000fa00b14c8000b8
:10094800a04c80000080680000f0a7000000ea00ca
:100958000000ea004f00de000080fa0000000600f8
:100968000a00fa003007980041079800ce0090006e
:100978003e00900000805000004d8800004d80002f
:10098800e20f400007003500004d8000e20f5000e4
:1009980004003c009a29ef009829ef009c29ef00f9
:1009a8004e003700d14c8000004d80000080400090
:1009b800d04c8800d14c8000803e2000808f5000b1
:1009c80002003400803e2000d04c8800d14c8000ca
:1009d80080c12f00808f500002003d0080c12f0091
:1009e800d04c8800814d8000004d80000088b900ff
:1009f80000017800f14c8000d04c80000088b900dc
:100a08000000780000004100e04c8800e14c8000c4
:100a180040062000808f500002003400400620006d
:100a2800e04c8800e14c8000c0f92f00808f500016
:100a380002003d00c0f92f00e04c8800e04c800027
:100a48000000e0000500350010002000000f7800cd
:100a5800e14c800011079800050037000080eb008a
:100a6800000f7800e04c80000000ea0010079800b2
:100a78001e0090007400b90000017800b047210002
:100a88000090b900c388de004f90de00008050005f
:100a98000005b00020079800ae009000f004200088
:100aa800808f500002003c000005200020079800bd
:100ab800ae00900040062000808f500002003400f5
:100ac80040062000200798009e0078002e00900025
:100ad8000088b90000007800c04c8800c04c800035
:100ae8000080fa00000006000000fa00213a8000a9
:100af80000fe2f0000806000203a8800900220004d
:100b0800303a8800213a8000f0f32f00008060001e
:100b1800203a88001200200080072000a109200048
:100b28003374200080497800814978008249780030
:100b3800103a8000000178000200a0006004200044
:100b480071052000237420008049780081497800cd
:100b58008249780000000000113a80000000270058
:100b68008080600000002100808f5000faff3a006a
:100b780000000000113a80000002200000806000a0
:100b88000000e000fbff32000080fa0000000600d1
:100b98000000fa00113a8000f00b2000008160008c
:100ba800600420007105200023742000804978002b
:100bb80081497800824978002135800000fe2f00a5
:100bc800008060005000b300203588002136800086
:100bd80000fe2f00008060003000b300203688003f
:100be800103a8000000178000260a0006004200034
:100bf800710520002374200080497800814978001d
:100c0800824978000080fa00000006000600fa0019
:100c180010079800210798001e0090000000e000cf
:100c280009003a002e009000800078000170a100b1
:100c3800010f78001e00780000407800f6fe0700db
:100c480039ff0700080037002e0090000080d1000f
:100c5800000f78001e70a0001e0078000040780089
:100c6800edfe070030ff07000080fa0000000600d4
:100c78000a00fa00f0072000000f78009aff07002a
:100c880041168000f0ff20000080600040168800b8
:100c9800bfff07006a000700100020004700070098
:100ca80021000700b6fe07001e0090002c00070078
:100cb80001003700000000001fff07000000e000ef
:100cc8000900320007ff0700404798004e40900097
:100cd8000080fb00000f78001e00780000407800bc
:100ce800cdfe070010ff070069000700e10f500064
:100cf800f0ff3a00100020004d0007003007980070
:100d08003e0090004280de00400798009e00780078
:100d18004e00900012ff0700100798001e00900078
:100d28000f000700e4ff37000000fa0041168000ba
:100d3800f0d32f0000806000401688000621ef00e5
:100d4800800c2000600888000000280080088800c7
:100d580084e0a90094e0a8000080fa0000000600e2
:100d68000200fa00000f78001e0078000000e00082
:100d780005003d0020002000304d88001e00ea00dc
:100d8800204d88000b0037001e0078000000e000ae
:100d98000500340010002000304d88009e007800c7
:100da800214d880003003700a629ef009e00780037
:100db800214d88000080fa00000006000200fa00b9
:100dc800000f78001e007800ef00600040168000d9
:100dd80001007000401688001e007800e3006000e3
:100de8000016800001007000001688001e80ea00ce
:100df800601988002823ef0050102000201988006f
:100e080085a0a90095a0a80051058000f0f82f0042
:100e1800008060000060a00050058800000e2800d7
:100e2800001988002023a8000080fa0000000600ae
:100e38000000fa00604d80000080fa000000060003
:100e48000000fa00f0ff2e005016880041168000be
:100e5800f0ff200000806000401688000021ef00ad
:100e680000c4290010088800000028002008880015
:100e7800200480000030a10020048800a004800025
:100e88000030a000a00488000080fa0000000600de
:100e98000000fa00404d8000504d8800a829ef005e
:0c0ea800504d80000080fa0000000600a1
:020000040000fa
:100eb400a809000004000000000000000008000071
:100ec4009801000000000000ac09000002000000ce
:100ed40000000000a209000006000000000000005d
:100ee400ae090000020000000200000064000000df
:100ef400980900000a00000000000000b00900008a
:100f040002000000020000000100000000000000d8
:020000040000fa
:0200000401f009
:04000000ffffff00ff
:020000040000fa
:0200000401f009
:04000800ffffff00f7
:020000040000fa
:0200000401f009
:04000c0000000000f0
:020000040000fa
:0200000401f009
:0400100043000000a9
:020000040000fa
:0200000401f009
:040014005f00000089
:020000040000fa
:0200000401f009
:04001800f7000000ed
:020000040000fa
:0200000401f009
:04001c00dfff000002
:00000001FF
