:020000040000fa
:080000000002040000000000f2
:020000040000fa
:04000800be03000033
:020000040000fa
:04000c00be0300002f
:020000040000fa
:04001000be0300002b
:020000040000fa
:04001400be03000027
:020000040000fa
:04001800be03000023
:020000040000fa
:04001c00be0300001f
:020000040000fa
:04002000be0300001b
:020000040000fa
:04002400be03000017
:020000040000fa
:04002800be03000013
:020000040000fa
:04002c00be0300000f
:020000040000fa
:04003000be0300000b
:020000040000fa
:04003400c8020000fe
:020000040000fa
:04003800be03000003
:020000040000fa
:04003c00be030000ff
:020000040000fa
:04004000be030000fb
:020000040000fa
:040044003a0300007b
:020000040000fa
:04004800be030000f3
:020000040000fa
:04004c00be030000ef
:020000040000fa
:04005000be030000eb
:020000040000fa
:0400540002030000a3
:020000040000fa
:04005800d8020000ca
:020000040000fa
:04005c002403000079
:020000040000fa
:04006000be030000db
:020000040000fa
:04006400be030000d7
:020000040000fa
:04006800be030000d3
:020000040000fa
:04006c00be030000cf
:020000040000fa
:04007000be030000cb
:020000040000fa
:04007400be030000c7
:020000040000fa
:04007800be030000c3
:020000040000fa
:04007c00be030000bf
:020000040000fa
:04008000be030000bb
:020000040000fa
:04008400be030000b7
:020000040000fa
:04008800be030000b3
:020000040000fa
:04008c00be030000af
:020000040000fa
:04009000be030000ab
:020000040000fa
:04009400be030000a7
:020000040000fa
:04009800be030000a3
:020000040000fa
:04009c00be0300009f
:020000040000fa
:0400a000be0300009b
:020000040000fa
:0400a400be03000097
:020000040000fa
:0400a800be03000093
:020000040000fa
:0400ac00be0300008f
:020000040000fa
:0400b000be0300008b
:020000040000fa
:0400b400be03000087
:020000040000fa
:0400b800be03000083
:020000040000fa
:0400bc00be0300007f
:020000040000fa
:0400c000be0300007b
:020000040000fa
:0400c400be03000077
:020000040000fa
:0400c800be03000073
:020000040000fa
:0400cc00be0300006f
:020000040000fa
:0400d000be0300006b
:020000040000fa
:0400d400be03000067
:020000040000fa
:0400d800be03000063
:020000040000fa
:0400dc00be0300005f
:020000040000fa
:0400e000be0300005b
:020000040000fa
:0400e400be03000057
:020000040000fa
:0400e800be03000053
:020000040000fa
:0400ec00be0300004f
:020000040000fa
:0400f000be0300004b
:020000040000fa
:0400f400be03000047
:020000040000fa
:0400f800be03000043
:020000040000fa
:0400fc00be0300003f
:020000040000fa
:04010000be0300003a
:020000040000fa
:04010400be03000036
:020000040000fa
:04010800be03000032
:020000040000fa
:04010c00be0300002e
:020000040000fa
:04011000be0300002a
:020000040000fa
:04011400be03000026
:020000040000fa
:04011800be03000022
:020000040000fa
:04011c00be0300001e
:020000040000fa
:04012000be0300001a
:020000040000fa
:04012400be03000016
:020000040000fa
:04012800be03000012
:020000040000fa
:04012c00be0300000e
:020000040000fa
:04013000be0300000a
:020000040000fa
:04013400be03000006
:020000040000fa
:04013800be03000002
:020000040000fa
:04013c00be030000fe
:020000040000fa
:04014000be030000fa
:020000040000fa
:04014400be030000f6
:020000040000fa
:04014800be030000f2
:020000040000fa
:04014c00be030000ee
:020000040000fa
:04015000be030000ea
:020000040000fa
:04020800be03000031
:020000040000fa
:04020c00be0300002d
:020000040000fa
:04021000be03000029
:020000040000fa
:04021400be03000025
:020000040000fa
:04021800be03000021
:020000040000fa
:04021c00be0300001d
:020000040000fa
:04022000be03000019
:020000040000fa
:04022400be03000015
:020000040000fa
:04022800be03000011
:020000040000fa
:04022c00be0300000d
:020000040000fa
:04023000be03000009
:020000040000fa
:04023400c8020000fc
:020000040000fa
:04023800be03000001
:020000040000fa
:04023c00be030000fd
:020000040000fa
:04024000be030000f9
:020000040000fa
:040244003a03000079
:020000040000fa
:04024800be030000f1
:020000040000fa
:04024c00be030000ed
:020000040000fa
:04025000be030000e9
:020000040000fa
:0402540002030000a1
:020000040000fa
:04025800d8020000c8
:020000040000fa
:04025c002403000077
:020000040000fa
:04026000be030000d9
:020000040000fa
:04026400be030000d5
:020000040000fa
:04026800be030000d1
:020000040000fa
:04026c00be030000cd
:020000040000fa
:04027000be030000c9
:020000040000fa
:04027400be030000c5
:020000040000fa
:04027800be030000c1
:020000040000fa
:04027c00be030000bd
:020000040000fa
:04028000be030000b9
:020000040000fa
:04028400be030000b5
:020000040000fa
:04028800be030000b1
:020000040000fa
:04028c00be030000ad
:020000040000fa
:04029000be030000a9
:020000040000fa
:04029400be030000a5
:020000040000fa
:04029800be030000a1
:020000040000fa
:04029c00be0300009d
:020000040000fa
:0402a000be03000099
:020000040000fa
:0402a400be03000095
:020000040000fa
:0402a800be03000091
:020000040000fa
:0402ac00be0300008d
:020000040000fa
:0402b000be03000089
:020000040000fa
:0402b400be03000085
:020000040000fa
:0402b800be03000081
:020000040000fa
:0402bc00be0300007d
:020000040000fa
:0402c000be03000079
:020000040000fa
:0402c400be03000075
:020000040000fa
:0402c800be03000071
:020000040000fa
:0402cc00be0300006d
:020000040000fa
:0402d000be03000069
:020000040000fa
:0402d400be03000065
:020000040000fa
:0402d800be03000061
:020000040000fa
:0402dc00be0300005d
:020000040000fa
:0402e000be03000059
:020000040000fa
:0402e400be03000055
:020000040000fa
:0402e800be03000051
:020000040000fa
:0402ec00be0300004d
:020000040000fa
:0402f000be03000049
:020000040000fa
:0402f400be03000045
:020000040000fa
:0402f800be03000041
:020000040000fa
:0402fc00be0300003d
:020000040000fa
:04030000be03000038
:020000040000fa
:04030400be03000034
:020000040000fa
:04030800be03000030
:020000040000fa
:04030c00be0300002c
:020000040000fa
:04031000be03000028
:020000040000fa
:04031400be03000024
:020000040000fa
:04031800be03000020
:020000040000fa
:04031c00be0300001c
:020000040000fa
:04032000be03000018
:020000040000fa
:04032400be03000014
:020000040000fa
:04032800be03000010
:020000040000fa
:04032c00be0300000c
:020000040000fa
:04033000be03000008
:020000040000fa
:04033400be03000004
:020000040000fa
:04033800be03000000
:020000040000fa
:04033c00be030000fc
:020000040000fa
:04034000be030000f8
:020000040000fa
:04034400be030000f4
:020000040000fa
:04034800be030000f0
:020000040000fa
:04034c00be030000ec
:020000040000fa
:04035000be030000e8
:020000040000fa
:100400000f9c20000eff20000e018800000000005d
:10041000000020000000e000020032000001200087
:100420002002880014000700d60007000000e0004a
:1004300003003a00a08620000100200002003700df
:100440000000200001002000810f70000100320038
:1004500014000700000020000000e000020032004d
:100460000000020000000000ea030200000000009b
:100470000040da000000fe004440a9000000200017
:100480000000e0000300320000002000a00188000e
:100490004440a800000006008a1f78008b1f7800e7
:1004a0000000060091018800800478000000eb0045
:1004b0001a003700e284440032a0b4009905ba0063
:1004c000e284440032a0b4009906ba00e2844400f9
:1004d00032a0b4000006eb00476fde00fd07b2005b
:1004e000636ce10003003a00ebff07000000eb0043
:1004f0000a003700606ce10004003a00005deb0088
:100500008b05e900fdff3e00040037006168e10053
:10051000010032000086eb000b00070019c7ba008b
:100520001905ba000e04e00003003a000a00e000da
:10053000e0ff3a0000000600fe07b2009e018800be
:100540008a047800f5ff3700395dba008b05e900b1
:100550000c003200295dba008b05e900080032006a
:100560000c00e00003003a00e284440032a0b40032
:10057000f5ff370019ddba008b05e900faff3a00f4
:100580008904e800e184440032a0b40000000600c1
:10059000801f78000000fa008460a900100020008d
:1005a000b04d88000080fa004f007800004006003f
:1005b0003600f800809fbe00829fbe00849fbe0070
:1005c000869fbe000000fa008580a900914c800043
:1005d000804c8000808f5000030032002f01070004
:1005e0000080fb00201188000080fa004f03be004d
:1005f0004f02be004f01be004f00be003600f900a2
:10060000004006003600f800809fbe00829fbe00ba
:10061000849fbe00869fbe000000fa008560a9008e
:1006200030118000004078002d0107000080fa00a2
:100630004f03be004f02be004f01be004f00be0080
:100640003600f90000400600801f78000000fa0024
:1006500085a0a90000188000d04d880000198000f6
:100660000010a000001988000080fa004f007800f8
:1006700000400600809fbe000000fa0084e0a90050
:10068000a04d8000e20f500004003a005016800098
:100690000090a000501688000a003700a04d80008e
:1006a000e10f500004003a00501680000090a100b5
:1006b0005016880003003700501680000090a100fb
:1006c00050168800a04d8000e20f500004003a0050
:1006d000501680000070a100501688000a003700f4
:1006e000a04d8000e10f500004003a005016800039
:1006f0000070a000501688000300370050168000dc
:100700000070a10050168800a04d80000000e0009d
:100710000c003200814d8000904d8000808f500091
:1007200004003c00501680000060a00050168800b5
:1007300007003700501680000060a10050168800a6
:1007400003003700501680000060a100501688009a
:10075000814d8000e04d8000808f500001003a0004
:10076000b029ef00804d80000000e800804d880037
:100770000080fa004f00be00004006000040da0092
:080780000000fe00000005006e
:020000040000fa
:100788000400fa00000f7800110798001e00780096
:100798000000e00006003a001e00900000407800cb
:1007a8000074a100aa000700ed000700050037004b
:1007b8001e009000004078000074a000a40007000c
:1007c800e70007000080fa00000006001000fa00a9
:1007d8000000eb00000f78001000200010079800c0
:1007e8000000eb00200798004d010700411680002b
:1007f800f0ff2000008060004016880072010700aa
:100808001702070010002000f4010700ce010700be
:10081800690007003e009000d90107008901070020
:10082800001680000010a1000016880003003700a1
:10083800000000000100370000000000cc000700a5
:100848000000e00006003200b4000700004f9800e6
:100858000e4890008080fb00f0072000008f6000a9
:1008680013020700e10f5000f1ff3a00840107006e
:100878005007980010002000f50107006007980055
:100888006e0090004380de00f107200000805000d9
:10089800700798005e009000e10f50000e003a00cb
:1008a8002e0090000000e0000b003a009e0090002f
:1008b80010032000808f500022003c001e00900092
:1008c8000000e800100798009e0090000000eb0070
:1008d800abff07001b0037005e009000e20f5000de
:1008e8000d003a002e0090000000e0000a003a00d7
:1008f8001e009000e10f5000120034001e0090000e
:100908000000e900100798009e0090000000eb002e
:100918009bff07000b0037005e009000e30f5000bc
:1009280008003a002e009000e10f500003003a0042
:100938000000eb002007980002003700100020009c
:10094800200798002e0090000000e0000d003a00fb
:100958009e0078007e0090008f0007003007980006
:100968003e00900086010700101680000010a100cc
:10097800101688005016800000c0a000501688008d
:10098800aeff37002e009000e10f5000aaff3a009a
:10099800101680000010a000101688005016800065
:1009a80000c0a10050168800fe0090001000200032
:1009b80073ff0700a1ff37000000fa00401680000f
:1009c8000050a00040168800401680000040a1009a
:1009d80040168800f0032000401188002002a9007a
:1009e8000111800090ff2f00008060000011880036
:1009f80020a2a90021e2a80023e2a800111180008a
:100a0800f0f32f0000806000101188002342a80036
:100a18005105800080ff2f00008060000020a000aa
:100a28005005880041058000f0ff28000080600024
:100a380000e0a000400588008580a9008560a90025
:100a48009580a8009560a8000080fa0000000600c4
:100a58000200fa00004f7800824c80009e40780027
:100a6800008020000000410001487800804c800090
:100a78000000e800804c8800814c8000800c200039
:100a8800808f500001003a009029ef000080fa00a2
:100a9800000006000200fa00914c8000008020004f
:100aa8000080400010407800004f7800904c800093
:100ab8000000e800904c8800914c8000800c2000d9
:100ac800808f500001003a009229ef001e40780004
:100ad8000080fa00000006000200fa00004f7800cb
:100ae800a24c80009e407800808c200000004100cd
:100af80001487800a04c80000000e800a04c880065
:100b0800a14c8000800c2000808f500001003a002a
:100b18009429ef000080fa00000006000200fa00a5
:100b2800b14c8000808c200000804000104078008c
:100b3800004f7800b04c80000000e800b04c8800fe
:100b4800b14c8000800c2000808f500001003a00da
:100b58009629ef001e4078000080fa000000060089
:100b68000000fa008580a8000080fa000000060056
:100b78000000fa00b14c8000a04c800000806800a2
:100b880000f0a7000000ea000000ea004f00de00c5
:100b98000080fa00000006000a00fa0030079800fa
:100ba80041079800ce0090003e0090000080500061
:100bb800704d8800704d8000e20f4000070035003e
:100bc800704d8000e20f500004003c00a829ef009f
:100bd800a629ef00aa29ef004e003700414d8000fa
:100be800704d800000804000404d8800414d8000dd
:100bf800803e2000808f500002003400803e20009c
:100c0800404d8800414d800080c12f00808f5000ea
:100c180002003d0080c12f00404d8800f14d80004a
:100c2800704d80000088b90000017800614d800097
:100c3800404d80000088b9000000780000004100a5
:100c4800504d8800514d800040062000808f500094
:100c58000200340040062000504d8800514d8000ad
:100c6800c0f92f00808f500002003d00c0f92f000e
:100c7800504d8800504d80000000e0000500350010
:100c880010002000000f7800514d800011079800d7
:100c9800050037000080eb00000f7800504d800001
:100ca8000000ea00100798001e0090007400b900c8
:100cb80000017800b04721000090b900c388de0029
:100cc8004f90de00008050000005b000200798001b
:100cd800ae009000f0042000808f500002003c001d
:100ce8000005200020079800ae0090004006200074
:100cf800808f500002003400400620002007980032
:100d08009e0078002e0090000088b900000078004e
:100d1800304d8800304d80000080fa000000060049
:100d28000000fa00213a800000fe2f0000806000d9
:100d3800203a880090022000303a8800213a80004a
:100d4800f0f32f0000806000203a88001200200095
:100d580080072000a1092000337420008049780012
:100d68008149780082497800103a800000017800b3
:100d78000200a000600420007105200023742000f8
:100d88008049780081497800824978000000000095
:100d9800113a8000000027008080600000002100d8
:100da800808f5000faff3a0000000000113a8000de
:100db80000022000008060000000e000fbff32001d
:100dc8000080fa00000006000000fa00113a8000d6
:100dd800f00b2000008160006004200071052000f5
:100de800237420008049780081497800824978007e
:100df8002135800000fe2f00008060005000b30005
:100e0800203588002136800000fe2f000080600019
:100e18003000b30020368800103a800000017800c6
:100e28000260a000600420007105200023742000e7
:100e38008049780081497800824978000080fa006a
:100e4800000006000000fa0000168000c001b30090
:100e5800001688005016800070006000d04c880092
:100e68005016800068006000f04c88005016800022
:100e780064006000104d88000080fa000000060041
:100e88000000fa00a429ef00d04c8000c04c880074
:100e98001016800070006000d04c8800d14c800093
:100ea800c04c8000808f500006003200d04c80007b
:100eb800700060000000e000020032001000200016
:100ec800204d8800f04c8000e04c8800101680000f
:100ed80068006000f04c8800f14c8000e04c800015
:100ee800808f500006003200f04c800068006000df
:100ef8000000e0000200320020002000204d8800a1
:100f0800104d8000004d88001016800064006000bd
:100f1800104d8800114d8000004d8000808f5000da
:100f280006003200104d8000640060000000e00000
:100f38000200320030002000204d8800204d800043
:100f48000080fa00000006000000fa004116800048
:100f5800f0d32f0000806000401688000621ef00c3
:100f6800800c2000600888000000280080088800a5
:100f780084e0a90094e0a8000080fa0000000600c0
:100f88000200fa00000f78001e0078000000e00060
:100f980005003d0020002000a04d88001e00ea004a
:100fa800904d88000b0037001e0078000000e0001c
:100fb8000500340010002000a04d88009e00780035
:100fc800914d880003003700b429ef009e00780097
:100fd800914d88000080fa00000006000200fa0027
:100fe800000f78001e007800ef00600040168000b7
:100ff80001007000401688001e007800e3006000c1
:101008000016800001007000001688001e80ea00ab
:10101800601988002823ef0050102000201988004c
:1010280085a0a90095a0a80051058000f0f82f0020
:10103800008060000060a00050058800000e2800b5
:10104800001988002023a8000080fa00000006008c
:101058000000fa00d04d80000080fa000000060071
:101068000000fa00f0ff2e0050168800411680009c
:10107800f0ff200000806000401688000021ef008b
:1010880000c42900100888000000280020088800f3
:10109800200480000030a10020048800a004800003
:1010a8000030a000a00488000080fa0000000600bc
:1010b8000000fa00b04d8000c04d8800b629ef004e
:0c10c800c04d80000080fa00000006000f
:020000040000fa
:1010d400b609000004000000000000000008000041
:1010e4009801000000000000ba090000020000009e
:1010f40000000000b009000006000000000000002d
:10110400bc090000020000000200000064000000ae
:10111400a60900000a00000000000000be0900004b
:101124000200000002000000010000009809000015
:0c1134000e0000000000000000000000a1
:020000040000fa
:0200000401f009
:04000000ffffff00ff
:020000040000fa
:0200000401f009
:04000800ffffff00f7
:020000040000fa
:0200000401f009
:04000c0000000000f0
:020000040000fa
:0200000401f009
:0400100043000000a9
:020000040000fa
:0200000401f009
:040014005f00000089
:020000040000fa
:0200000401f009
:04001800f7000000ed
:020000040000fa
:0200000401f009
:04001c00dfff000002
:00000001FF
